{
  "contractName": "Traceability",
  "abi": [
    {
      "anonymous": false,
      "inputs": [
        {
          "indexed": false,
          "internalType": "bytes32",
          "name": "_idDevice",
          "type": "bytes32"
        },
        {
          "indexed": false,
          "internalType": "address",
          "name": "_deviceAddress",
          "type": "address"
        }
      ],
      "name": "AddDevice",
      "type": "event"
    },
    {
      "anonymous": false,
      "inputs": [
        {
          "indexed": false,
          "internalType": "bytes32",
          "name": "_latitude",
          "type": "bytes32"
        },
        {
          "indexed": false,
          "internalType": "bytes32",
          "name": "_longitude",
          "type": "bytes32"
        },
        {
          "indexed": false,
          "internalType": "bytes32",
          "name": "_altitude",
          "type": "bytes32"
        },
        {
          "indexed": false,
          "internalType": "bytes32",
          "name": "_unixTime",
          "type": "bytes32"
        },
        {
          "indexed": false,
          "internalType": "bytes32",
          "name": "_device",
          "type": "bytes32"
        },
        {
          "indexed": false,
          "internalType": "bytes32",
          "name": "_fishCode",
          "type": "bytes32"
        }
      ],
      "name": "Track",
      "type": "event"
    },
    {
      "inputs": [
        {
          "internalType": "bytes32",
          "name": "_idDevice",
          "type": "bytes32"
        },
        {
          "internalType": "address",
          "name": "_deviceAddress",
          "type": "address"
        }
      ],
      "name": "addDevice",
      "outputs": [],
      "stateMutability": "nonpayable",
      "type": "function"
    },
    {
      "inputs": [
        {
          "internalType": "bytes32",
          "name": "_latitude",
          "type": "bytes32"
        },
        {
          "internalType": "bytes32",
          "name": "_longitude",
          "type": "bytes32"
        },
        {
          "internalType": "bytes32",
          "name": "_altitude",
          "type": "bytes32"
        },
        {
          "internalType": "bytes32",
          "name": "_unixTime",
          "type": "bytes32"
        },
        {
          "internalType": "bytes32",
          "name": "_device",
          "type": "bytes32"
        },
        {
          "internalType": "bytes32",
          "name": "_fishCode",
          "type": "bytes32"
        },
        {
          "internalType": "bytes32",
          "name": "_day",
          "type": "bytes32"
        }
      ],
      "name": "trackProduct",
      "outputs": [],
      "stateMutability": "nonpayable",
      "type": "function"
    },
    {
      "inputs": [],
      "name": "getAllDevices",
      "outputs": [
        {
          "components": [
            {
              "internalType": "bytes32",
              "name": "idDevice",
              "type": "bytes32"
            },
            {
              "internalType": "address",
              "name": "deviceAddress",
              "type": "address"
            }
          ],
          "internalType": "struct Traceability.Device[]",
          "name": "",
          "type": "tuple[]"
        }
      ],
      "stateMutability": "view",
      "type": "function",
      "constant": true
    },
    {
      "inputs": [
        {
          "internalType": "bytes32",
          "name": "_idDevice",
          "type": "bytes32"
        }
      ],
      "name": "getProductsByDevice",
      "outputs": [
        {
          "components": [
            {
              "internalType": "bytes32",
              "name": "latitude",
              "type": "bytes32"
            },
            {
              "internalType": "bytes32",
              "name": "longitude",
              "type": "bytes32"
            },
            {
              "internalType": "bytes32",
              "name": "altitude",
              "type": "bytes32"
            },
            {
              "internalType": "bytes32",
              "name": "unixTime",
              "type": "bytes32"
            },
            {
              "internalType": "bytes32",
              "name": "device",
              "type": "bytes32"
            },
            {
              "internalType": "bytes32",
              "name": "fishCode",
              "type": "bytes32"
            }
          ],
          "internalType": "struct Traceability.Product[]",
          "name": "",
          "type": "tuple[]"
        }
      ],
      "stateMutability": "view",
      "type": "function",
      "constant": true
    },
    {
      "inputs": [],
      "name": "getAllProductTracked",
      "outputs": [
        {
          "components": [
            {
              "internalType": "bytes32",
              "name": "latitude",
              "type": "bytes32"
            },
            {
              "internalType": "bytes32",
              "name": "longitude",
              "type": "bytes32"
            },
            {
              "internalType": "bytes32",
              "name": "altitude",
              "type": "bytes32"
            },
            {
              "internalType": "bytes32",
              "name": "unixTime",
              "type": "bytes32"
            },
            {
              "internalType": "bytes32",
              "name": "device",
              "type": "bytes32"
            },
            {
              "internalType": "bytes32",
              "name": "fishCode",
              "type": "bytes32"
            }
          ],
          "internalType": "struct Traceability.Product[]",
          "name": "",
          "type": "tuple[]"
        }
      ],
      "stateMutability": "view",
      "type": "function",
      "constant": true
    },
    {
      "inputs": [
        {
          "internalType": "bytes32",
          "name": "day",
          "type": "bytes32"
        }
      ],
      "name": "getProductsForDay",
      "outputs": [
        {
          "components": [
            {
              "internalType": "bytes32",
              "name": "latitude",
              "type": "bytes32"
            },
            {
              "internalType": "bytes32",
              "name": "longitude",
              "type": "bytes32"
            },
            {
              "internalType": "bytes32",
              "name": "altitude",
              "type": "bytes32"
            },
            {
              "internalType": "bytes32",
              "name": "unixTime",
              "type": "bytes32"
            },
            {
              "internalType": "bytes32",
              "name": "device",
              "type": "bytes32"
            },
            {
              "internalType": "bytes32",
              "name": "fishCode",
              "type": "bytes32"
            }
          ],
          "internalType": "struct Traceability.Product[]",
          "name": "",
          "type": "tuple[]"
        }
      ],
      "stateMutability": "view",
      "type": "function",
      "constant": true
    }
  ],
  "bytecode": "0x608060405234801561001057600080fd5b50610f49806100206000396000f3fe608060405234801561001057600080fd5b50600436106100625760003560e01c806302ef7c7f1461006757806336d97b10146100975780634f9e73e7146100b557806370336be5146100d15780637a2a530d146101015780638e8b85ca1461011f575b600080fd5b610081600480360381019061007c919061093f565b61013b565b60405161008e9190610aa5565b60405180910390f35b61009f6101e9565b6040516100ac9190610aa5565b60405180910390f35b6100cf60048036038101906100ca9190610b25565b610284565b005b6100eb60048036038101906100e6919061093f565b6104f6565b6040516100f89190610aa5565b60405180910390f35b6101096105a4565b6040516101169190610c52565b60405180910390f35b61013960048036038101906101349190610c74565b610663565b005b606060016000838152602001908152602001600020805480602002602001604051908101604052809291908181526020016000905b828210156101de57838290600052602060002090600602016040518060c0016040529081600082015481526020016001820154815260200160028201548152602001600382015481526020016004820154815260200160058201548152505081526020019060010190610170565b505050509050919050565b60606004805480602002602001604051908101604052809291908181526020016000905b8282101561027b57838290600052602060002090600602016040518060c001604052908160008201548152602001600182015481526020016002820154815260200160038201548152602001600482015481526020016005820154815250508152602001906001019061020d565b50505050905090565b736d10efb6e42413839b2807334a0756ab1cdac25f73ffffffffffffffffffffffffffffffffffffffff163373ffffffffffffffffffffffffffffffffffffffff1614610306576040517f08c379a00000000000000000000000000000000000000000000000000000000081526004016102fd90610d73565b60405180910390fd5b600015156000808373ffffffffffffffffffffffffffffffffffffffff1673ffffffffffffffffffffffffffffffffffffffff16815260200190815260200160002060009054906101000a900460ff16151514610398576040517f08c379a000000000000000000000000000000000000000000000000000000000815260040161038f90610ddf565b60405180910390fd5b60016000808373ffffffffffffffffffffffffffffffffffffffff1673ffffffffffffffffffffffffffffffffffffffff16815260200190815260200160002060006101000a81548160ff0219169083151502179055506103f76108d1565b8281600001818152505081816020019073ffffffffffffffffffffffffffffffffffffffff16908173ffffffffffffffffffffffffffffffffffffffff168152505060038190806001815401808255809150506001900390600052602060002090600202016000909190919091506000820151816000015560208201518160010160006101000a81548173ffffffffffffffffffffffffffffffffffffffff021916908373ffffffffffffffffffffffffffffffffffffffff16021790555050507fd5fcba2015711c2a2ceb7d325fa39462d21556d47e211cdf47b59cb063695ab683836040516104e9929190610e1d565b60405180910390a1505050565b606060026000838152602001908152602001600020805480602002602001604051908101604052809291908181526020016000905b8282101561059957838290600052602060002090600602016040518060c001604052908160008201548152602001600182015481526020016002820154815260200160038201548152602001600482015481526020016005820154815250508152602001906001019061052b565b505050509050919050565b60606003805480602002602001604051908101604052809291908181526020016000905b8282101561065a5783829060005260206000209060020201604051806040016040529081600082015481526020016001820160009054906101000a900473ffffffffffffffffffffffffffffffffffffffff1673ffffffffffffffffffffffffffffffffffffffff1673ffffffffffffffffffffffffffffffffffffffff1681525050815260200190600101906105c8565b50505050905090565b600115156000803373ffffffffffffffffffffffffffffffffffffffff1673ffffffffffffffffffffffffffffffffffffffff16815260200190815260200160002060009054906101000a900460ff161515146106f5576040517f08c379a00000000000000000000000000000000000000000000000000000000081526004016106ec90610e92565b60405180910390fd5b60006040518060c0016040528089815260200188815260200187815260200186815260200185815260200184815250905060016000858152602001908152602001600020819080600181540180825580915050600190039060005260206000209060060201600090919091909150600082015181600001556020820151816001015560408201518160020155606082015181600301556080820151816004015560a0820151816005015550506004819080600181540180825580915050600190039060005260206000209060060201600090919091909150600082015181600001556020820151816001015560408201518160020155606082015181600301556080820151816004015560a08201518160050155505060026000838152602001908152602001600020819080600181540180825580915050600190039060005260206000209060060201600090919091909150600082015181600001556020820151816001015560408201518160020155606082015181600301556080820151816004015560a0820151816005015550507f47c6fc8195daf7911bbade33f014eaa3815a99d862a669c935cf7bd9c220d7808888888888886040516108bf96959493929190610eb2565b60405180910390a15050505050505050565b604051806040016040528060008019168152602001600073ffffffffffffffffffffffffffffffffffffffff1681525090565b600080fd5b6000819050919050565b61091c81610909565b811461092757600080fd5b50565b60008135905061093981610913565b92915050565b60006020828403121561095557610954610904565b5b60006109638482850161092a565b91505092915050565b600081519050919050565b600082825260208201905092915050565b6000819050602082019050919050565b6109a181610909565b82525050565b60c0820160008201516109bd6000850182610998565b5060208201516109d06020850182610998565b5060408201516109e36040850182610998565b5060608201516109f66060850182610998565b506080820151610a096080850182610998565b5060a0820151610a1c60a0850182610998565b50505050565b6000610a2e83836109a7565b60c08301905092915050565b6000602082019050919050565b6000610a528261096c565b610a5c8185610977565b9350610a6783610988565b8060005b83811015610a98578151610a7f8882610a22565b9750610a8a83610a3a565b925050600181019050610a6b565b5085935050505092915050565b60006020820190508181036000830152610abf8184610a47565b905092915050565b600073ffffffffffffffffffffffffffffffffffffffff82169050919050565b6000610af282610ac7565b9050919050565b610b0281610ae7565b8114610b0d57600080fd5b50565b600081359050610b1f81610af9565b92915050565b60008060408385031215610b3c57610b3b610904565b5b6000610b4a8582860161092a565b9250506020610b5b85828601610b10565b9150509250929050565b600081519050919050565b600082825260208201905092915050565b6000819050602082019050919050565b610b9a81610ae7565b82525050565b604082016000820151610bb66000850182610998565b506020820151610bc96020850182610b91565b50505050565b6000610bdb8383610ba0565b60408301905092915050565b6000602082019050919050565b6000610bff82610b65565b610c098185610b70565b9350610c1483610b81565b8060005b83811015610c45578151610c2c8882610bcf565b9750610c3783610be7565b925050600181019050610c18565b5085935050505092915050565b60006020820190508181036000830152610c6c8184610bf4565b905092915050565b600080600080600080600060e0888a031215610c9357610c92610904565b5b6000610ca18a828b0161092a565b9750506020610cb28a828b0161092a565b9650506040610cc38a828b0161092a565b9550506060610cd48a828b0161092a565b9450506080610ce58a828b0161092a565b93505060a0610cf68a828b0161092a565b92505060c0610d078a828b0161092a565b91505092959891949750929550565b600082825260208201905092915050565b7f4f6e6c792061646d696e2063616e206164642061646472657373657300000000600082015250565b6000610d5d601c83610d16565b9150610d6882610d27565b602082019050919050565b60006020820190508181036000830152610d8c81610d50565b9050919050565b7f546869732064657669636520616c726561647920657869737400000000000000600082015250565b6000610dc9601983610d16565b9150610dd482610d93565b602082019050919050565b60006020820190508181036000830152610df881610dbc565b9050919050565b610e0881610909565b82525050565b610e1781610ae7565b82525050565b6000604082019050610e326000830185610dff565b610e3f6020830184610e0e565b9392505050565b7f41646472657373206e6f7420617574686f72697a656421000000000000000000600082015250565b6000610e7c601783610d16565b9150610e8782610e46565b602082019050919050565b60006020820190508181036000830152610eab81610e6f565b9050919050565b600060c082019050610ec76000830189610dff565b610ed46020830188610dff565b610ee16040830187610dff565b610eee6060830186610dff565b610efb6080830185610dff565b610f0860a0830184610dff565b97965050505050505056fea26469706673582212200e69e349c2da2b240f4d90dfb42a6590b97b4823b1ad3d64a6faaa5c2e68e94464736f6c634300080f0033",
  "immutableReferences": {},
  "source": "// SPDX-License-Identifier: MIT\n\npragma solidity >= 0.8.0;\n\ncontract Traceability {\n\n    struct Product {\n        bytes32 latitude;\n        bytes32 longitude;\n        bytes32 altitude;\n        bytes32 unixTime;\n        bytes32 device; // \"peschereccio\"\n        bytes32 fishCode; // codice cassetta \n    }\n\n    struct Device {\n        bytes32 idDevice;\n        address deviceAddress;\n    }\n\n\n    mapping(address => bool) private devices;\n    mapping(bytes32 => Product[]) private productTracked;\n    mapping(bytes32 => Product[]) private productsForDay;\n\n    Device[] private devicesAdded;\n    Product[] private productAdded;\n\n    event Track(bytes32 _latitude, bytes32 _longitude, bytes32 _altitude, bytes32 _unixTime, bytes32 _device, bytes32 _fishCode);\n\n    event AddDevice(bytes32 _idDevice, address _deviceAddress);\n\n\n    function addDevice(bytes32 _idDevice, address _deviceAddress) public {\n        require(msg.sender == 0x6D10eFB6E42413839b2807334a0756ab1CdaC25f, \"Only admin can add addresses\");\n        require(devices[_deviceAddress] == false, \"This device already exist\");\n\n        devices[_deviceAddress] = true;\n        Device memory device;\n        device.idDevice = _idDevice;\n        device.deviceAddress = _deviceAddress;\n\n        devicesAdded.push(device);\n\n\n        emit AddDevice(_idDevice, _deviceAddress);\n    }\n\n\n    function trackProduct(bytes32 _latitude, bytes32 _longitude, bytes32 _altitude, bytes32 _unixTime, bytes32 _device, bytes32 _fishCode, bytes32 _day) public {\n        require(devices[msg.sender] == true, \"Address not authorized!\");\n        Product memory product = Product({latitude: _latitude, longitude: _longitude, altitude: _altitude, unixTime: _unixTime, device: _device, fishCode: _fishCode});\n        \n        productTracked[_device].push(product);\n        productAdded.push(product);\n        productsForDay[_day].push(product);\n\n        emit Track(_latitude, _longitude, _altitude, _unixTime, _device, _fishCode);\n    }\n\n\n    function getAllDevices() public view returns(Device[] memory) {\n        return devicesAdded;\n    }\n\n\n    function getProductsByDevice(bytes32 _idDevice) public view returns(Product[] memory) {\n        return productTracked[_idDevice];\n    }\n\n\n    function getAllProductTracked() public view returns(Product[] memory) {\n        return productAdded;\n    }\n\n\n    function getProductsForDay(bytes32 day) public view returns(Product[] memory) {\n        return productsForDay[day];\n    }\n\n}",
  "sourcePath": "C:\\Users\\Lorenzo Verducci\\OneDrive - Universit di Camerino\\Desktop\\INFORMATICA\\3 anno\\Stage\\besuDeploy\\contracts\\Traceability.sol",
  "compiler": {
    "name": "solc",
    "version": "0.8.15+commit.e14f2714.Emscripten.clang"
  },
  "schemaVersion": "3.4.7",
  "updatedAt": "2023-01-05T15:18:45.786Z",
  "networkType": "ethereum",
  "devdoc": {
    "kind": "dev",
    "methods": {},
    "version": 1
  },
  "userdoc": {
    "kind": "user",
    "methods": {},
    "version": 1
  }
}