{
  "contractName": "Traceability",
  "abi": [
    {
      "anonymous": false,
      "inputs": [
        {
          "indexed": false,
          "internalType": "bytes32",
          "name": "_idDevice",
          "type": "bytes32"
        },
        {
          "indexed": false,
          "internalType": "address",
          "name": "_deviceAddress",
          "type": "address"
        }
      ],
      "name": "AddDevice",
      "type": "event"
    },
    {
      "anonymous": false,
      "inputs": [
        {
          "indexed": false,
          "internalType": "bytes",
          "name": "jsonData",
          "type": "bytes"
        }
      ],
      "name": "Track",
      "type": "event"
    },
    {
      "inputs": [
        {
          "internalType": "bytes32",
          "name": "_idDevice",
          "type": "bytes32"
        },
        {
          "internalType": "address",
          "name": "_deviceAddress",
          "type": "address"
        }
      ],
      "name": "addDevice",
      "outputs": [],
      "stateMutability": "nonpayable",
      "type": "function"
    },
    {
      "inputs": [
        {
          "internalType": "bytes",
          "name": "jsonData",
          "type": "bytes"
        }
      ],
      "name": "trackProduct",
      "outputs": [],
      "stateMutability": "nonpayable",
      "type": "function"
    },
    {
      "inputs": [],
      "name": "getAllDevices",
      "outputs": [
        {
          "components": [
            {
              "internalType": "bytes32",
              "name": "idDevice",
              "type": "bytes32"
            },
            {
              "internalType": "address",
              "name": "deviceAddress",
              "type": "address"
            }
          ],
          "internalType": "struct Traceability.Device[]",
          "name": "",
          "type": "tuple[]"
        }
      ],
      "stateMutability": "view",
      "type": "function",
      "constant": true
    },
    {
      "inputs": [
        {
          "internalType": "bytes32",
          "name": "_idDevice",
          "type": "bytes32"
        }
      ],
      "name": "getProductsByDevice",
      "outputs": [
        {
          "internalType": "bytes[]",
          "name": "",
          "type": "bytes[]"
        }
      ],
      "stateMutability": "view",
      "type": "function",
      "constant": true
    },
    {
      "inputs": [],
      "name": "getAllProductsTracked",
      "outputs": [
        {
          "internalType": "bytes[]",
          "name": "",
          "type": "bytes[]"
        }
      ],
      "stateMutability": "view",
      "type": "function",
      "constant": true
    }
  ],
  "bytecode": "0x608060405234801561001057600080fd5b506111c3806100206000396000f3fe608060405234801561001057600080fd5b50600436106100575760003560e01c806302ef7c7f1461005c5780630f7e29f51461008c5780634f9e73e7146100a85780637a2a530d146100c4578063b5e71123146100e2575b600080fd5b61007660048036038101906100719190610848565b610100565b60405161008391906109d0565b60405180910390f35b6100a660048036038101906100a19190610a57565b6101eb565b005b6100c260048036038101906100bd9190610b02565b610386565b005b6100cc61063d565b6040516100d99190610c3e565b60405180910390f35b6100ea6106fc565b6040516100f791906109d0565b60405180910390f35b6060600080838152602001908152602001600020805480602002602001604051908101604052809291908181526020016000905b828210156101e057838290600052602060002001805461015390610c8f565b80601f016020809104026020016040519081016040528092919081815260200182805461017f90610c8f565b80156101cc5780601f106101a1576101008083540402835291602001916101cc565b820191906000526020600020905b8154815290600101906020018083116101af57829003601f168201915b505050505081526020019060010190610134565b505050509050919050565b60011515600160003373ffffffffffffffffffffffffffffffffffffffff1673ffffffffffffffffffffffffffffffffffffffff16815260200190815260200160002060009054906101000a900460ff1615151461027e576040517f08c379a000000000000000000000000000000000000000000000000000000000815260040161027590610d1d565b60405180910390fd5b600080600260003373ffffffffffffffffffffffffffffffffffffffff1673ffffffffffffffffffffffffffffffffffffffff16815260200190815260200160002054815260200190815260200160002082829091806001815401808255809150506001900390600052602060002001600090919290919290919290919250918261030a929190610f2d565b506004828290918060018154018082558091505060019003906000526020600020016000909192909192909192909192509182610348929190610f2d565b507f0a5dd9c35be5f6f672bd294b5022426802cd41ff18038c5eed3f91cb98d62e34828260405161037a92919061104a565b60405180910390a15050565b739a59e1c09ce01e2823ff6b0c46344f2926e8326273ffffffffffffffffffffffffffffffffffffffff163373ffffffffffffffffffffffffffffffffffffffff1614610408576040517f08c379a00000000000000000000000000000000000000000000000000000000081526004016103ff906110ba565b60405180910390fd5b60001515600160008373ffffffffffffffffffffffffffffffffffffffff1673ffffffffffffffffffffffffffffffffffffffff16815260200190815260200160002060009054906101000a900460ff1615151461049b576040517f08c379a000000000000000000000000000000000000000000000000000000000815260040161049290611126565b60405180910390fd5b60018060008373ffffffffffffffffffffffffffffffffffffffff1673ffffffffffffffffffffffffffffffffffffffff16815260200190815260200160002060006101000a81548160ff02191690831515021790555081600260008373ffffffffffffffffffffffffffffffffffffffff1673ffffffffffffffffffffffffffffffffffffffff1681526020019081526020016000208190555061053e6107d5565b8281600001818152505081816020019073ffffffffffffffffffffffffffffffffffffffff16908173ffffffffffffffffffffffffffffffffffffffff168152505060038190806001815401808255809150506001900390600052602060002090600202016000909190919091506000820151816000015560208201518160010160006101000a81548173ffffffffffffffffffffffffffffffffffffffff021916908373ffffffffffffffffffffffffffffffffffffffff16021790555050507fd5fcba2015711c2a2ceb7d325fa39462d21556d47e211cdf47b59cb063695ab68383604051610630929190611164565b60405180910390a1505050565b60606003805480602002602001604051908101604052809291908181526020016000905b828210156106f35783829060005260206000209060020201604051806040016040529081600082015481526020016001820160009054906101000a900473ffffffffffffffffffffffffffffffffffffffff1673ffffffffffffffffffffffffffffffffffffffff1673ffffffffffffffffffffffffffffffffffffffff168152505081526020019060010190610661565b50505050905090565b60606004805480602002602001604051908101604052809291908181526020016000905b828210156107cc57838290600052602060002001805461073f90610c8f565b80601f016020809104026020016040519081016040528092919081815260200182805461076b90610c8f565b80156107b85780601f1061078d576101008083540402835291602001916107b8565b820191906000526020600020905b81548152906001019060200180831161079b57829003601f168201915b505050505081526020019060010190610720565b50505050905090565b604051806040016040528060008019168152602001600073ffffffffffffffffffffffffffffffffffffffff1681525090565b600080fd5b600080fd5b6000819050919050565b61082581610812565b811461083057600080fd5b50565b6000813590506108428161081c565b92915050565b60006020828403121561085e5761085d610808565b5b600061086c84828501610833565b91505092915050565b600081519050919050565b600082825260208201905092915050565b6000819050602082019050919050565b600081519050919050565b600082825260208201905092915050565b60005b838110156108db5780820151818401526020810190506108c0565b838111156108ea576000848401525b50505050565b6000601f19601f8301169050919050565b600061090c826108a1565b61091681856108ac565b93506109268185602086016108bd565b61092f816108f0565b840191505092915050565b60006109468383610901565b905092915050565b6000602082019050919050565b600061096682610875565b6109708185610880565b93508360208202850161098285610891565b8060005b858110156109be578484038952815161099f858261093a565b94506109aa8361094e565b925060208a01995050600181019050610986565b50829750879550505050505092915050565b600060208201905081810360008301526109ea818461095b565b905092915050565b600080fd5b600080fd5b600080fd5b60008083601f840112610a1757610a166109f2565b5b8235905067ffffffffffffffff811115610a3457610a336109f7565b5b602083019150836001820283011115610a5057610a4f6109fc565b5b9250929050565b60008060208385031215610a6e57610a6d610808565b5b600083013567ffffffffffffffff811115610a8c57610a8b61080d565b5b610a9885828601610a01565b92509250509250929050565b600073ffffffffffffffffffffffffffffffffffffffff82169050919050565b6000610acf82610aa4565b9050919050565b610adf81610ac4565b8114610aea57600080fd5b50565b600081359050610afc81610ad6565b92915050565b60008060408385031215610b1957610b18610808565b5b6000610b2785828601610833565b9250506020610b3885828601610aed565b9150509250929050565b600081519050919050565b600082825260208201905092915050565b6000819050602082019050919050565b610b7781610812565b82525050565b610b8681610ac4565b82525050565b604082016000820151610ba26000850182610b6e565b506020820151610bb56020850182610b7d565b50505050565b6000610bc78383610b8c565b60408301905092915050565b6000602082019050919050565b6000610beb82610b42565b610bf58185610b4d565b9350610c0083610b5e565b8060005b83811015610c31578151610c188882610bbb565b9750610c2383610bd3565b925050600181019050610c04565b5085935050505092915050565b60006020820190508181036000830152610c588184610be0565b905092915050565b7f4e487b7100000000000000000000000000000000000000000000000000000000600052602260045260246000fd5b60006002820490506001821680610ca757607f821691505b602082108103610cba57610cb9610c60565b5b50919050565b600082825260208201905092915050565b7f41646472657373206e6f7420617574686f72697a656421000000000000000000600082015250565b6000610d07601783610cc0565b9150610d1282610cd1565b602082019050919050565b60006020820190508181036000830152610d3681610cfa565b9050919050565b600082905092915050565b7f4e487b7100000000000000000000000000000000000000000000000000000000600052604160045260246000fd5b60008190508160005260206000209050919050565b60006020601f8301049050919050565b600082821b905092915050565b600060088302610dd97fffffffffffffffffffffffffffffffffffffffffffffffffffffffffffffffff82610d9c565b610de38683610d9c565b95508019841693508086168417925050509392505050565b6000819050919050565b6000819050919050565b6000610e2a610e25610e2084610dfb565b610e05565b610dfb565b9050919050565b6000819050919050565b610e4483610e0f565b610e58610e5082610e31565b848454610da9565b825550505050565b600090565b610e6d610e60565b610e78818484610e3b565b505050565b5b81811015610e9c57610e91600082610e65565b600181019050610e7e565b5050565b601f821115610ee157610eb281610d77565b610ebb84610d8c565b81016020851015610eca578190505b610ede610ed685610d8c565b830182610e7d565b50505b505050565b600082821c905092915050565b6000610f0460001984600802610ee6565b1980831691505092915050565b6000610f1d8383610ef3565b9150826002028217905092915050565b610f378383610d3d565b67ffffffffffffffff811115610f5057610f4f610d48565b5b610f5a8254610c8f565b610f65828285610ea0565b6000601f831160018114610f945760008415610f82578287013590505b610f8c8582610f11565b865550610ff4565b601f198416610fa286610d77565b60005b82811015610fca57848901358255600182019150602085019450602081019050610fa5565b86831015610fe75784890135610fe3601f891682610ef3565b8355505b6001600288020188555050505b50505050505050565b600082825260208201905092915050565b82818337600083830152505050565b60006110298385610ffd565b935061103683858461100e565b61103f836108f0565b840190509392505050565b6000602082019050818103600083015261106581848661101d565b90509392505050565b7f4f6e6c792061646d696e2063616e206164642061646472657373657300000000600082015250565b60006110a4601c83610cc0565b91506110af8261106e565b602082019050919050565b600060208201905081810360008301526110d381611097565b9050919050565b7f546869732064657669636520616c726561647920657869737400000000000000600082015250565b6000611110601983610cc0565b915061111b826110da565b602082019050919050565b6000602082019050818103600083015261113f81611103565b9050919050565b61114f81610812565b82525050565b61115e81610ac4565b82525050565b60006040820190506111796000830185611146565b6111866020830184611155565b939250505056fea264697066735822122062f3fc1a68283ed85033ed8984b82523e0b6213ab5242694c4cedfca56c3ccee64736f6c634300080f0033",
  "immutableReferences": {},
  "source": "// SPDX-License-Identifier: MIT\r\n\r\npragma solidity >= 0.8.0;\r\n\r\ncontract Traceability {\r\n\r\n    struct Device {\r\n        bytes32 idDevice;\r\n        address deviceAddress;\r\n    }\r\n\r\n\r\n    mapping(bytes32 => bytes[]) private productsForDevice;\r\n    mapping(address => bool) private devices;\r\n    mapping(address => bytes32) private idOfDevice;\r\n\r\n    Device[] private devicesAdded;\r\n    bytes[] private allProducts;\r\n\r\n    event Track(bytes jsonData);\r\n\r\n    event AddDevice(bytes32 _idDevice, address _deviceAddress);\r\n\r\n\r\n    function addDevice(bytes32 _idDevice, address _deviceAddress) public {\r\n        require(msg.sender == 0x9a59E1c09CE01e2823FF6B0C46344f2926E83262, \"Only admin can add addresses\");\r\n        require(devices[_deviceAddress] == false, \"This device already exist\");\r\n\r\n        devices[_deviceAddress] = true;\r\n        idOfDevice[_deviceAddress] = _idDevice;\r\n        Device memory device;\r\n        device.idDevice = _idDevice;\r\n        device.deviceAddress = _deviceAddress;\r\n\r\n        devicesAdded.push(device);\r\n\r\n\r\n        emit AddDevice(_idDevice, _deviceAddress);\r\n    }\r\n\r\n\r\n    function trackProduct(bytes calldata jsonData) public {\r\n        require(devices[msg.sender] == true, \"Address not authorized!\");\r\n\r\n        productsForDevice[idOfDevice[msg.sender]].push(jsonData);\r\n        allProducts.push(jsonData);\r\n\r\n        emit Track(jsonData);\r\n    }\r\n\r\n\r\n    function getAllDevices() public view returns(Device[] memory) {\r\n        return devicesAdded;\r\n    }\r\n\r\n\r\n    function getProductsByDevice(bytes32 _idDevice) public view returns(bytes[] memory) {\r\n        return productsForDevice[_idDevice];\r\n    }\r\n\r\n\r\n    function getAllProductsTracked() public view returns(bytes[] memory) {\r\n        return allProducts;\r\n    }\r\n\r\n}",
  "sourcePath": "C:\\Users\\verdu\\Desktop\\INFORMATICA\\_Universit_\\3 anno\\Stage\\truffle_projects\\traceability_contract_v3\\contracts\\Traceability.sol",
  "compiler": {
    "name": "solc",
    "version": "0.8.15+commit.e14f2714.Emscripten.clang"
  },
  "schemaVersion": "3.4.13",
  "updatedAt": "2023-04-14T15:32:09.580Z",
  "networkType": "ethereum",
  "devdoc": {
    "kind": "dev",
    "methods": {},
    "version": 1
  },
  "userdoc": {
    "kind": "user",
    "methods": {},
    "version": 1
  }
}